{
  "_format": "hh-sol-artifact-1",
  "contractName": "Registry",
  "sourceName": "contracts/Registry.sol",
  "abi": [
    {
      "inputs": [],
      "stateMutability": "nonpayable",
      "type": "constructor"
    },
    {
      "inputs": [
        {
          "internalType": "uint256",
          "name": "_index",
          "type": "uint256"
        },
        {
          "internalType": "uint256",
          "name": "_reqNo",
          "type": "uint256"
        }
      ],
      "name": "AcceptRequest",
      "outputs": [],
      "stateMutability": "nonpayable",
      "type": "function"
    },
    {
      "inputs": [
        {
          "internalType": "string",
          "name": "_state",
          "type": "string"
        },
        {
          "internalType": "string",
          "name": "_district",
          "type": "string"
        },
        {
          "internalType": "string",
          "name": "_city",
          "type": "string"
        },
        {
          "internalType": "uint256",
          "name": "_surveyNo",
          "type": "uint256"
        }
      ],
      "name": "RequestForBuy",
      "outputs": [],
      "stateMutability": "nonpayable",
      "type": "function"
    },
    {
      "inputs": [
        {
          "internalType": "address",
          "name": "_adminAddr",
          "type": "address"
        },
        {
          "internalType": "string",
          "name": "_state",
          "type": "string"
        },
        {
          "internalType": "string",
          "name": "_district",
          "type": "string"
        },
        {
          "internalType": "string",
          "name": "_city",
          "type": "string"
        }
      ],
      "name": "addAdmin",
      "outputs": [],
      "stateMutability": "nonpayable",
      "type": "function"
    },
    {
      "inputs": [
        {
          "internalType": "address",
          "name": "",
          "type": "address"
        }
      ],
      "name": "admins",
      "outputs": [
        {
          "internalType": "address",
          "name": "adminAddress",
          "type": "address"
        },
        {
          "internalType": "string",
          "name": "city",
          "type": "string"
        },
        {
          "internalType": "string",
          "name": "district",
          "type": "string"
        },
        {
          "internalType": "string",
          "name": "state",
          "type": "string"
        }
      ],
      "stateMutability": "view",
      "type": "function"
    },
    {
      "inputs": [
        {
          "internalType": "string",
          "name": "_state",
          "type": "string"
        },
        {
          "internalType": "string",
          "name": "_district",
          "type": "string"
        },
        {
          "internalType": "string",
          "name": "_city",
          "type": "string"
        },
        {
          "internalType": "uint256",
          "name": "_surveyNo",
          "type": "uint256"
        }
      ],
      "name": "didIRequested",
      "outputs": [
        {
          "internalType": "bool",
          "name": "",
          "type": "bool"
        }
      ],
      "stateMutability": "view",
      "type": "function"
    },
    {
      "inputs": [],
      "name": "getIndices",
      "outputs": [
        {
          "internalType": "uint256",
          "name": "",
          "type": "uint256"
        },
        {
          "internalType": "uint256",
          "name": "",
          "type": "uint256"
        }
      ],
      "stateMutability": "view",
      "type": "function"
    },
    {
      "inputs": [
        {
          "internalType": "string",
          "name": "_state",
          "type": "string"
        },
        {
          "internalType": "string",
          "name": "_district",
          "type": "string"
        },
        {
          "internalType": "string",
          "name": "_city",
          "type": "string"
        },
        {
          "internalType": "uint256",
          "name": "_surveyNo",
          "type": "uint256"
        }
      ],
      "name": "getLandDetails",
      "outputs": [
        {
          "internalType": "address",
          "name": "",
          "type": "address"
        },
        {
          "internalType": "uint256",
          "name": "",
          "type": "uint256"
        },
        {
          "internalType": "uint256",
          "name": "",
          "type": "uint256"
        },
        {
          "internalType": "uint256",
          "name": "",
          "type": "uint256"
        },
        {
          "internalType": "uint256",
          "name": "",
          "type": "uint256"
        }
      ],
      "stateMutability": "view",
      "type": "function"
    },
    {
      "inputs": [
        {
          "internalType": "uint256",
          "name": "indx",
          "type": "uint256"
        }
      ],
      "name": "getOwnerOwns",
      "outputs": [
        {
          "internalType": "string",
          "name": "",
          "type": "string"
        },
        {
          "internalType": "string",
          "name": "",
          "type": "string"
        },
        {
          "internalType": "string",
          "name": "",
          "type": "string"
        },
        {
          "internalType": "uint256",
          "name": "",
          "type": "uint256"
        }
      ],
      "stateMutability": "view",
      "type": "function"
    },
    {
      "inputs": [
        {
          "internalType": "string",
          "name": "_state",
          "type": "string"
        },
        {
          "internalType": "string",
          "name": "_district",
          "type": "string"
        },
        {
          "internalType": "string",
          "name": "_city",
          "type": "string"
        },
        {
          "internalType": "uint256",
          "name": "_surveyNo",
          "type": "uint256"
        }
      ],
      "name": "getRequestCnt_propId",
      "outputs": [
        {
          "internalType": "uint256",
          "name": "",
          "type": "uint256"
        },
        {
          "internalType": "uint256",
          "name": "",
          "type": "uint256"
        }
      ],
      "stateMutability": "view",
      "type": "function"
    },
    {
      "inputs": [
        {
          "internalType": "uint256",
          "name": "indx",
          "type": "uint256"
        }
      ],
      "name": "getRequestedLands",
      "outputs": [
        {
          "internalType": "string",
          "name": "",
          "type": "string"
        },
        {
          "internalType": "string",
          "name": "",
          "type": "string"
        },
        {
          "internalType": "string",
          "name": "",
          "type": "string"
        },
        {
          "internalType": "uint256",
          "name": "",
          "type": "uint256"
        }
      ],
      "stateMutability": "view",
      "type": "function"
    },
    {
      "inputs": [
        {
          "internalType": "string",
          "name": "_state",
          "type": "string"
        },
        {
          "internalType": "string",
          "name": "_district",
          "type": "string"
        },
        {
          "internalType": "string",
          "name": "_city",
          "type": "string"
        },
        {
          "internalType": "uint256",
          "name": "_surveyNo",
          "type": "uint256"
        },
        {
          "internalType": "uint256",
          "name": "_reqIndex",
          "type": "uint256"
        }
      ],
      "name": "getRequesterDetail",
      "outputs": [
        {
          "internalType": "address",
          "name": "",
          "type": "address"
        }
      ],
      "stateMutability": "view",
      "type": "function"
    },
    {
      "inputs": [],
      "name": "getUserProfile",
      "outputs": [
        {
          "internalType": "string",
          "name": "",
          "type": "string"
        },
        {
          "internalType": "string",
          "name": "",
          "type": "string"
        },
        {
          "internalType": "string",
          "name": "",
          "type": "string"
        },
        {
          "internalType": "uint256",
          "name": "",
          "type": "uint256"
        },
        {
          "internalType": "string",
          "name": "",
          "type": "string"
        }
      ],
      "stateMutability": "view",
      "type": "function"
    },
    {
      "inputs": [],
      "name": "isAdmin",
      "outputs": [
        {
          "internalType": "bool",
          "name": "",
          "type": "bool"
        }
      ],
      "stateMutability": "view",
      "type": "function"
    },
    {
      "inputs": [
        {
          "internalType": "string",
          "name": "_state",
          "type": "string"
        },
        {
          "internalType": "string",
          "name": "_district",
          "type": "string"
        },
        {
          "internalType": "string",
          "name": "_city",
          "type": "string"
        },
        {
          "internalType": "uint256",
          "name": "_surveyNo",
          "type": "uint256"
        }
      ],
      "name": "isAvailable",
      "outputs": [
        {
          "internalType": "bool",
          "name": "",
          "type": "bool"
        }
      ],
      "stateMutability": "view",
      "type": "function"
    },
    {
      "inputs": [
        {
          "internalType": "string",
          "name": "",
          "type": "string"
        },
        {
          "internalType": "string",
          "name": "",
          "type": "string"
        },
        {
          "internalType": "string",
          "name": "",
          "type": "string"
        },
        {
          "internalType": "uint256",
          "name": "",
          "type": "uint256"
        }
      ],
      "name": "landDetalsMap",
      "outputs": [
        {
          "internalType": "address",
          "name": "owner",
          "type": "address"
        },
        {
          "internalType": "address",
          "name": "admin",
          "type": "address"
        },
        {
          "internalType": "uint256",
          "name": "propertyId",
          "type": "uint256"
        },
        {
          "internalType": "uint256",
          "name": "surveyNumber",
          "type": "uint256"
        },
        {
          "internalType": "uint256",
          "name": "index",
          "type": "uint256"
        },
        {
          "internalType": "bool",
          "name": "registered",
          "type": "bool"
        },
        {
          "internalType": "uint256",
          "name": "marketValue",
          "type": "uint256"
        },
        {
          "internalType": "bool",
          "name": "markAvailable",
          "type": "bool"
        },
        {
          "internalType": "uint256",
          "name": "noOfRequests",
          "type": "uint256"
        },
        {
          "internalType": "uint256",
          "name": "sqft",
          "type": "uint256"
        }
      ],
      "stateMutability": "view",
      "type": "function"
    },
    {
      "inputs": [
        {
          "internalType": "uint256",
          "name": "indexNo",
          "type": "uint256"
        }
      ],
      "name": "markMyPropertyAvailable",
      "outputs": [],
      "stateMutability": "nonpayable",
      "type": "function"
    },
    {
      "inputs": [
        {
          "internalType": "address",
          "name": "",
          "type": "address"
        },
        {
          "internalType": "uint256",
          "name": "",
          "type": "uint256"
        }
      ],
      "name": "ownerMapsProperty",
      "outputs": [
        {
          "internalType": "uint256",
          "name": "surveyNumber",
          "type": "uint256"
        },
        {
          "internalType": "string",
          "name": "state",
          "type": "string"
        },
        {
          "internalType": "string",
          "name": "district",
          "type": "string"
        },
        {
          "internalType": "string",
          "name": "city",
          "type": "string"
        }
      ],
      "stateMutability": "view",
      "type": "function"
    },
    {
      "inputs": [
        {
          "internalType": "string",
          "name": "_state",
          "type": "string"
        },
        {
          "internalType": "string",
          "name": "_district",
          "type": "string"
        },
        {
          "internalType": "string",
          "name": "_city",
          "type": "string"
        },
        {
          "internalType": "uint256",
          "name": "_propertyId",
          "type": "uint256"
        },
        {
          "internalType": "uint256",
          "name": "_surveyNo",
          "type": "uint256"
        },
        {
          "internalType": "address",
          "name": "_owner",
          "type": "address"
        },
        {
          "internalType": "uint256",
          "name": "_marketValue",
          "type": "uint256"
        },
        {
          "internalType": "uint256",
          "name": "_sqft",
          "type": "uint256"
        }
      ],
      "name": "registerLand",
      "outputs": [],
      "stateMutability": "nonpayable",
      "type": "function"
    },
    {
      "inputs": [
        {
          "internalType": "address",
          "name": "",
          "type": "address"
        },
        {
          "internalType": "uint256",
          "name": "",
          "type": "uint256"
        }
      ],
      "name": "requestedLands",
      "outputs": [
        {
          "internalType": "uint256",
          "name": "surveyNumber",
          "type": "uint256"
        },
        {
          "internalType": "string",
          "name": "state",
          "type": "string"
        },
        {
          "internalType": "string",
          "name": "district",
          "type": "string"
        },
        {
          "internalType": "string",
          "name": "city",
          "type": "string"
        }
      ],
      "stateMutability": "view",
      "type": "function"
    },
    {
      "inputs": [
        {
          "internalType": "string",
          "name": "_fullName",
          "type": "string"
        },
        {
          "internalType": "string",
          "name": "_gender",
          "type": "string"
        },
        {
          "internalType": "string",
          "name": "_email",
          "type": "string"
        },
        {
          "internalType": "uint256",
          "name": "_contact",
          "type": "uint256"
        },
        {
          "internalType": "string",
          "name": "_residentialAddr",
          "type": "string"
        }
      ],
      "name": "setUserProfile",
      "outputs": [],
      "stateMutability": "nonpayable",
      "type": "function"
    },
    {
      "inputs": [],
      "name": "superAdmin",
      "outputs": [
        {
          "internalType": "address",
          "name": "",
          "type": "address"
        }
      ],
      "stateMutability": "view",
      "type": "function"
    },
    {
      "inputs": [],
      "name": "totalAdmins",
      "outputs": [
        {
          "internalType": "uint256",
          "name": "",
          "type": "uint256"
        }
      ],
      "stateMutability": "view",
      "type": "function"
    },
    {
      "inputs": [
        {
          "internalType": "address",
          "name": "",
          "type": "address"
        }
      ],
      "name": "userProfile",
      "outputs": [
        {
          "internalType": "address",
          "name": "userAddr",
          "type": "address"
        },
        {
          "internalType": "string",
          "name": "fullName",
          "type": "string"
        },
        {
          "internalType": "string",
          "name": "gender",
          "type": "string"
        },
        {
          "internalType": "string",
          "name": "email",
          "type": "string"
        },
        {
          "internalType": "uint256",
          "name": "contact",
          "type": "uint256"
        },
        {
          "internalType": "string",
          "name": "residentialAddr",
          "type": "string"
        },
        {
          "internalType": "uint256",
          "name": "totalIndices",
          "type": "uint256"
        },
        {
          "internalType": "uint256",
          "name": "requestIndices",
          "type": "uint256"
        }
      ],
      "stateMutability": "view",
      "type": "function"
    }
  ],
  "bytecode": "0x608060405234801561001057600080fd5b50336000806101000a81548173ffffffffffffffffffffffffffffffffffffffff021916908373ffffffffffffffffffffffffffffffffffffffff160217905550614bc1806100606000396000f3fe608060405234801561001057600080fd5b506004361061014d5760003560e01c80636d1b9a8e116100c3578063d06efd671161007c578063d06efd67146103f7578063d1dbeff214610428578063d41cc5c81461045b578063e331ad7c14610477578063eaec23fa146104ab578063eb68048b146104db5761014d565b80636d1b9a8e1461031c5780636f61c7441461034f5780638a80e4e414610371578063992369da1461038d578063b6db75a0146103bd578063bfde241c146103db5761014d565b80632a52ee86116101155780632a52ee861461022f5780632ca305f31461024b5780633bbd43b31461027e578063429b62e5146102ae57806344e05734146102e15780635863056d146102fd5761014d565b806303825d6c146101525780630e2279af1461016e5780631555ff1e146101a15780631c8e8962146101da57806329575f6a14610211575b600080fd5b61016c60048036038101906101679190613b13565b6104f9565b005b61018860048036038101906101839190613c04565b6105d4565b6040516101989493929190613cd2565b60405180910390f35b6101bb60048036038101906101b69190613d2c565b6107a9565b6040516101d19a99989796959493929190613e11565b60405180910390f35b6101f460048036038101906101ef9190613ead565b6108c0565b604051610208989796959493929190613eda565b60405180910390f35b610219610b48565b6040516102269190613f74565b60405180910390f35b61024960048036038101906102449190613f8f565b610b6c565b005b61026560048036038101906102609190614099565b6111cc565b60405161027594939291906140c6565b60405180910390f35b61029860048036038101906102939190614120565b6114e1565b6040516102a59190613f74565b60405180910390f35b6102c860048036038101906102c39190613ead565b611592565b6040516102d894939291906141ef565b60405180910390f35b6102fb60048036038101906102f69190614099565b61177a565b005b610305611bba565b604051610313929190614249565b60405180910390f35b61033660048036038101906103319190614099565b611c57565b60405161034694939291906140c6565b60405180910390f35b610357611f6c565b604051610368959493929190614272565b60405180910390f35b61038b60048036038101906103869190613d2c565b612313565b005b6103a760048036038101906103a29190613d2c565b6125e5565b6040516103b491906142e1565b60405180910390f35b6103c561266e565b6040516103d291906142e1565b60405180910390f35b6103f560048036038101906103f091906142fc565b612716565b005b610411600480360381019061040c9190613d2c565b6127b2565b60405161041f929190614249565b60405180910390f35b610442600480360381019061043d9190613c04565b6128a4565b6040516104529493929190613cd2565b60405180910390f35b610475600480360381019061047091906143e7565b612a79565b005b610491600480360381019061048c9190613d2c565b61355a565b6040516104a2959493929190614427565b60405180910390f35b6104c560048036038101906104c09190613d2c565b6137cb565b6040516104d291906142e1565b60405180910390f35b6104e36138f8565b6040516104f0919061447a565b60405180910390f35b6000600260008673ffffffffffffffffffffffffffffffffffffffff1673ffffffffffffffffffffffffffffffffffffffff16815260200190815260200160002090506001600081548092919061054f906144c4565b9190505550848160000160006101000a81548173ffffffffffffffffffffffffffffffffffffffff021916908373ffffffffffffffffffffffffffffffffffffffff160217905550818160010190816105a89190614718565b50828160020190816105ba9190614718565b50838160030190816105cc9190614718565b505050505050565b60046020528160005260406000206020528060005260406000206000915091505080600001549080600101805461060a9061453b565b80601f01602080910402602001604051908101604052809291908181526020018280546106369061453b565b80156106835780601f1061065857610100808354040283529160200191610683565b820191906000526020600020905b81548152906001019060200180831161066657829003601f168201915b5050505050908060020180546106989061453b565b80601f01602080910402602001604051908101604052809291908181526020018280546106c49061453b565b80156107115780601f106106e657610100808354040283529160200191610711565b820191906000526020600020905b8154815290600101906020018083116106f457829003601f168201915b5050505050908060030180546107269061453b565b80601f01602080910402602001604051908101604052809291908181526020018280546107529061453b565b801561079f5780601f106107745761010080835404028352916020019161079f565b820191906000526020600020905b81548152906001019060200180831161078257829003601f168201915b5050505050905084565b60058480516020810182018051848252602083016020850120818352809550505050505083805160208101820180518482526020830160208501208183528095505050505050828051602081018201805184825260208301602085012081835280955050505050506020528060005260406000206000935093505050508060000160009054906101000a900473ffffffffffffffffffffffffffffffffffffffff16908060010160009054906101000a900473ffffffffffffffffffffffffffffffffffffffff16908060020154908060030154908060040154908060050160009054906101000a900460ff16908060060154908060070160009054906101000a900460ff169080600901549080600a015490508a565b60066020528060005260406000206000915090508060000160009054906101000a900473ffffffffffffffffffffffffffffffffffffffff16908060010180546109099061453b565b80601f01602080910402602001604051908101604052809291908181526020018280546109359061453b565b80156109825780601f1061095757610100808354040283529160200191610982565b820191906000526020600020905b81548152906001019060200180831161096557829003601f168201915b5050505050908060020180546109979061453b565b80601f01602080910402602001604051908101604052809291908181526020018280546109c39061453b565b8015610a105780601f106109e557610100808354040283529160200191610a10565b820191906000526020600020905b8154815290600101906020018083116109f357829003601f168201915b505050505090806003018054610a259061453b565b80601f0160208091040260200160405190810160405280929190818152602001828054610a519061453b565b8015610a9e5780601f10610a7357610100808354040283529160200191610a9e565b820191906000526020600020905b815481529060010190602001808311610a8157829003601f168201915b505050505090806004015490806005018054610ab99061453b565b80601f0160208091040260200160405190810160405280929190818152602001828054610ae59061453b565b8015610b325780601f10610b0757610100808354040283529160200191610b32565b820191906000526020600020905b815481529060010190602001808311610b1557829003601f168201915b5050505050908060060154908060070154905088565b60008054906101000a900473ffffffffffffffffffffffffffffffffffffffff1681565b3373ffffffffffffffffffffffffffffffffffffffff16600260003373ffffffffffffffffffffffffffffffffffffffff1673ffffffffffffffffffffffffffffffffffffffff16815260200190815260200160002060000160009054906101000a900473ffffffffffffffffffffffffffffffffffffffff1673ffffffffffffffffffffffffffffffffffffffff1614610c3c576040517f08c379a0000000000000000000000000000000000000000000000000000000008152600401610c3390614836565b60405180910390fd5b87604051602001610c4d9190614892565b60405160208183030381529060405280519060200120600260003373ffffffffffffffffffffffffffffffffffffffff1673ffffffffffffffffffffffffffffffffffffffff168152602001908152602001600020600301604051602001610cb5919061492c565b60405160208183030381529060405280519060200120148015610d64575086604051602001610ce49190614892565b60405160208183030381529060405280519060200120600260003373ffffffffffffffffffffffffffffffffffffffff1673ffffffffffffffffffffffffffffffffffffffff168152602001908152602001600020600201604051602001610d4c919061492c565b60405160208183030381529060405280519060200120145b8015610dfc575085604051602001610d7c9190614892565b60405160208183030381529060405280519060200120600260003373ffffffffffffffffffffffffffffffffffffffff1673ffffffffffffffffffffffffffffffffffffffff168152602001908152602001600020600101604051602001610de4919061492c565b60405160208183030381529060405280519060200120145b610e3b576040517f08c379a0000000000000000000000000000000000000000000000000000000008152600401610e32906149b5565b60405180910390fd5b60001515600589604051610e4f9190614892565b908152602001604051809103902088604051610e6b9190614892565b908152602001604051809103902087604051610e879190614892565b9081526020016040518091039020600086815260200190815260200160002060050160009054906101000a900460ff16151514610ef9576040517f08c379a0000000000000000000000000000000000000000000000000000000008152600401610ef090614a47565b60405180910390fd5b6000600589604051610f0b9190614892565b908152602001604051809103902088604051610f279190614892565b908152602001604051809103902087604051610f439190614892565b9081526020016040518091039020600086815260200190815260200160002090506000600360008673ffffffffffffffffffffffffffffffffffffffff1673ffffffffffffffffffffffffffffffffffffffff1681526020019081526020016000206000600660008873ffffffffffffffffffffffffffffffffffffffff1673ffffffffffffffffffffffffffffffffffffffff1681526020019081526020016000206006015481526020019081526020016000209050848260000160006101000a81548173ffffffffffffffffffffffffffffffffffffffff021916908373ffffffffffffffffffffffffffffffffffffffff160217905550338260010160006101000a81548173ffffffffffffffffffffffffffffffffffffffff021916908373ffffffffffffffffffffffffffffffffffffffff160217905550868260020181905550858260030181905550600660008673ffffffffffffffffffffffffffffffffffffffff1673ffffffffffffffffffffffffffffffffffffffff16815260200190815260200160002060060154826004018190555060018260050160006101000a81548160ff02191690831515021790555083826006018190555060008260070160006101000a81548160ff0219169083151502179055508282600a0181905550858160000181905550898160010190816111439190614718565b50888160020190816111559190614718565b50878160030190816111679190614718565b50600660008673ffffffffffffffffffffffffffffffffffffffff1673ffffffffffffffffffffffffffffffffffffffff16815260200190815260200160002060060160008154809291906111bb906144c4565b919050555050505050505050505050565b6060806060600080600460003373ffffffffffffffffffffffffffffffffffffffff1673ffffffffffffffffffffffffffffffffffffffff16815260200190815260200160002060008781526020019081526020016000206000015490506000600460003373ffffffffffffffffffffffffffffffffffffffff1673ffffffffffffffffffffffffffffffffffffffff1681526020019081526020016000206000888152602001908152602001600020600101805461128a9061453b565b80601f01602080910402602001604051908101604052809291908181526020018280546112b69061453b565b80156113035780601f106112d857610100808354040283529160200191611303565b820191906000526020600020905b8154815290600101906020018083116112e657829003601f168201915b505050505090506000600460003373ffffffffffffffffffffffffffffffffffffffff1673ffffffffffffffffffffffffffffffffffffffff1681526020019081526020016000206000898152602001908152602001600020600201805461136a9061453b565b80601f01602080910402602001604051908101604052809291908181526020018280546113969061453b565b80156113e35780601f106113b8576101008083540402835291602001916113e3565b820191906000526020600020905b8154815290600101906020018083116113c657829003601f168201915b505050505090506000600460003373ffffffffffffffffffffffffffffffffffffffff1673ffffffffffffffffffffffffffffffffffffffff16815260200190815260200160002060008a8152602001908152602001600020600301805461144a9061453b565b80601f01602080910402602001604051908101604052809291908181526020018280546114769061453b565b80156114c35780601f10611498576101008083540402835291602001916114c3565b820191906000526020600020905b8154815290600101906020018083116114a657829003601f168201915b50505050509050828282869750975097509750505050509193509193565b6000806005876040516114f49190614892565b9081526020016040518091039020866040516115109190614892565b90815260200160405180910390208560405161152c9190614892565b90815260200160405180910390206000858152602001908152602001600020600801600084815260200190815260200160002060000160009054906101000a900473ffffffffffffffffffffffffffffffffffffffff1690508091505095945050505050565b60026020528060005260406000206000915090508060000160009054906101000a900473ffffffffffffffffffffffffffffffffffffffff16908060010180546115db9061453b565b80601f01602080910402602001604051908101604052809291908181526020018280546116079061453b565b80156116545780601f1061162957610100808354040283529160200191611654565b820191906000526020600020905b81548152906001019060200180831161163757829003601f168201915b5050505050908060020180546116699061453b565b80601f01602080910402602001604051908101604052809291908181526020018280546116959061453b565b80156116e25780601f106116b7576101008083540402835291602001916116e2565b820191906000526020600020905b8154815290600101906020018083116116c557829003601f168201915b5050505050908060030180546116f79061453b565b80601f01602080910402602001604051908101604052809291908181526020018280546117239061453b565b80156117705780601f1061174557610100808354040283529160200191611770565b820191906000526020600020905b81548152906001019060200180831161175357829003601f168201915b5050505050905084565b6000600360003373ffffffffffffffffffffffffffffffffffffffff1673ffffffffffffffffffffffffffffffffffffffff168152602001908152602001600020600083815260200190815260200160002060010180546117da9061453b565b80601f01602080910402602001604051908101604052809291908181526020018280546118069061453b565b80156118535780601f1061182857610100808354040283529160200191611853565b820191906000526020600020905b81548152906001019060200180831161183657829003601f168201915b505050505090506000600360003373ffffffffffffffffffffffffffffffffffffffff1673ffffffffffffffffffffffffffffffffffffffff168152602001908152602001600020600084815260200190815260200160002060020180546118ba9061453b565b80601f01602080910402602001604051908101604052809291908181526020018280546118e69061453b565b80156119335780601f1061190857610100808354040283529160200191611933565b820191906000526020600020905b81548152906001019060200180831161191657829003601f168201915b505050505090506000600360003373ffffffffffffffffffffffffffffffffffffffff1673ffffffffffffffffffffffffffffffffffffffff1681526020019081526020016000206000858152602001908152602001600020600301805461199a9061453b565b80601f01602080910402602001604051908101604052809291908181526020018280546119c69061453b565b8015611a135780601f106119e857610100808354040283529160200191611a13565b820191906000526020600020905b8154815290600101906020018083116119f657829003601f168201915b505050505090506000600360003373ffffffffffffffffffffffffffffffffffffffff1673ffffffffffffffffffffffffffffffffffffffff168152602001908152602001600020600086815260200190815260200160002060000154905060001515600585604051611a869190614892565b908152602001604051809103902084604051611aa29190614892565b908152602001604051809103902083604051611abe9190614892565b9081526020016040518091039020600083815260200190815260200160002060070160009054906101000a900460ff16151514611b30576040517f08c379a0000000000000000000000000000000000000000000000000000000008152600401611b2790614ad9565b60405180910390fd5b6001600585604051611b429190614892565b908152602001604051809103902084604051611b5e9190614892565b908152602001604051809103902083604051611b7a9190614892565b9081526020016040518091039020600083815260200190815260200160002060070160006101000a81548160ff0219169083151502179055505050505050565b6000806000600660003373ffffffffffffffffffffffffffffffffffffffff1673ffffffffffffffffffffffffffffffffffffffff1681526020019081526020016000206006015490506000600660003373ffffffffffffffffffffffffffffffffffffffff1673ffffffffffffffffffffffffffffffffffffffff16815260200190815260200160002060070154905081819350935050509091565b6060806060600080600360003373ffffffffffffffffffffffffffffffffffffffff1673ffffffffffffffffffffffffffffffffffffffff16815260200190815260200160002060008781526020019081526020016000206000015490506000600360003373ffffffffffffffffffffffffffffffffffffffff1673ffffffffffffffffffffffffffffffffffffffff16815260200190815260200160002060008881526020019081526020016000206001018054611d159061453b565b80601f0160208091040260200160405190810160405280929190818152602001828054611d419061453b565b8015611d8e5780601f10611d6357610100808354040283529160200191611d8e565b820191906000526020600020905b815481529060010190602001808311611d7157829003601f168201915b505050505090506000600360003373ffffffffffffffffffffffffffffffffffffffff1673ffffffffffffffffffffffffffffffffffffffff16815260200190815260200160002060008981526020019081526020016000206002018054611df59061453b565b80601f0160208091040260200160405190810160405280929190818152602001828054611e219061453b565b8015611e6e5780601f10611e4357610100808354040283529160200191611e6e565b820191906000526020600020905b815481529060010190602001808311611e5157829003601f168201915b505050505090506000600360003373ffffffffffffffffffffffffffffffffffffffff1673ffffffffffffffffffffffffffffffffffffffff16815260200190815260200160002060008a81526020019081526020016000206003018054611ed59061453b565b80601f0160208091040260200160405190810160405280929190818152602001828054611f019061453b565b8015611f4e5780601f10611f2357610100808354040283529160200191611f4e565b820191906000526020600020905b815481529060010190602001808311611f3157829003601f168201915b50505050509050828282869750975097509750505050509193509193565b6060806060600060606000600660003373ffffffffffffffffffffffffffffffffffffffff1673ffffffffffffffffffffffffffffffffffffffff1681526020019081526020016000206001018054611fc49061453b565b80601f0160208091040260200160405190810160405280929190818152602001828054611ff09061453b565b801561203d5780601f106120125761010080835404028352916020019161203d565b820191906000526020600020905b81548152906001019060200180831161202057829003601f168201915b505050505090506000600660003373ffffffffffffffffffffffffffffffffffffffff1673ffffffffffffffffffffffffffffffffffffffff16815260200190815260200160002060020180546120939061453b565b80601f01602080910402602001604051908101604052809291908181526020018280546120bf9061453b565b801561210c5780601f106120e15761010080835404028352916020019161210c565b820191906000526020600020905b8154815290600101906020018083116120ef57829003601f168201915b505050505090506000600660003373ffffffffffffffffffffffffffffffffffffffff1673ffffffffffffffffffffffffffffffffffffffff16815260200190815260200160002060030180546121629061453b565b80601f016020809104026020016040519081016040528092919081815260200182805461218e9061453b565b80156121db5780601f106121b0576101008083540402835291602001916121db565b820191906000526020600020905b8154815290600101906020018083116121be57829003601f168201915b505050505090506000600660003373ffffffffffffffffffffffffffffffffffffffff1673ffffffffffffffffffffffffffffffffffffffff1681526020019081526020016000206004015490506000600660003373ffffffffffffffffffffffffffffffffffffffff1673ffffffffffffffffffffffffffffffffffffffff16815260200190815260200160002060050180546122789061453b565b80601f01602080910402602001604051908101604052809291908181526020018280546122a49061453b565b80156122f15780601f106122c6576101008083540402835291602001916122f1565b820191906000526020600020905b8154815290600101906020018083116122d457829003601f168201915b5050505050905084848484849950995099509950995050505050509091929394565b60006005856040516123259190614892565b9081526020016040518091039020846040516123419190614892565b90815260200160405180910390208360405161235d9190614892565b908152602001604051809103902060008381526020019081526020016000209050600115158160070160009054906101000a900460ff161515146123d6576040517f08c379a00000000000000000000000000000000000000000000000000000000081526004016123cd90614b6b565b60405180910390fd5b6000816009015490503382600801600083815260200190815260200160002060000160006101000a81548173ffffffffffffffffffffffffffffffffffffffff021916908373ffffffffffffffffffffffffffffffffffffffff160217905550600660003373ffffffffffffffffffffffffffffffffffffffff1673ffffffffffffffffffffffffffffffffffffffff16815260200190815260200160002060070154826008016000838152602001908152602001600020600101819055508160090160008154809291906124aa906144c4565b91905055506000600460003373ffffffffffffffffffffffffffffffffffffffff1673ffffffffffffffffffffffffffffffffffffffff1681526020019081526020016000206000600660003373ffffffffffffffffffffffffffffffffffffffff1673ffffffffffffffffffffffffffffffffffffffff16815260200190815260200160002060070154815260200190815260200160002090508381600001819055508681600101908161255f9190614718565b50858160020190816125719190614718565b50848160030190816125839190614718565b50600660003373ffffffffffffffffffffffffffffffffffffffff1673ffffffffffffffffffffffffffffffffffffffff16815260200190815260200160002060070160008154809291906125d7906144c4565b919050555050505050505050565b6000806005866040516125f89190614892565b9081526020016040518091039020856040516126149190614892565b9081526020016040518091039020846040516126309190614892565b9081526020016040518091039020600084815260200190815260200160002060070160009054906101000a900460ff16905080915050949350505050565b60003373ffffffffffffffffffffffffffffffffffffffff16600260003373ffffffffffffffffffffffffffffffffffffffff1673ffffffffffffffffffffffffffffffffffffffff16815260200190815260200160002060000160009054906101000a900473ffffffffffffffffffffffffffffffffffffffff1673ffffffffffffffffffffffffffffffffffffffff160361270e5760019050612713565b600090505b90565b6000600660003373ffffffffffffffffffffffffffffffffffffffff1673ffffffffffffffffffffffffffffffffffffffff16815260200190815260200160002090508581600101908161276a9190614718565b508481600201908161277c9190614718565b508381600301908161278e9190614718565b50828160040181905550818160050190816127a99190614718565b50505050505050565b60008060006005876040516127c79190614892565b9081526020016040518091039020866040516127e39190614892565b9081526020016040518091039020856040516127ff9190614892565b9081526020016040518091039020600085815260200190815260200160002060090154905060006005886040516128369190614892565b9081526020016040518091039020876040516128529190614892565b90815260200160405180910390208660405161286e9190614892565b90815260200160405180910390206000868152602001908152602001600020600201549050818193509350505094509492505050565b6003602052816000526040600020602052806000526040600020600091509150508060000154908060010180546128da9061453b565b80601f01602080910402602001604051908101604052809291908181526020018280546129069061453b565b80156129535780601f1061292857610100808354040283529160200191612953565b820191906000526020600020905b81548152906001019060200180831161293657829003601f168201915b5050505050908060020180546129689061453b565b80601f01602080910402602001604051908101604052809291908181526020018280546129949061453b565b80156129e15780601f106129b6576101008083540402835291602001916129e1565b820191906000526020600020905b8154815290600101906020018083116129c457829003601f168201915b5050505050908060030180546129f69061453b565b80601f0160208091040260200160405190810160405280929190818152602001828054612a229061453b565b8015612a6f5780601f10612a4457610100808354040283529160200191612a6f565b820191906000526020600020905b815481529060010190602001808311612a5257829003601f168201915b5050505050905084565b6000600360003373ffffffffffffffffffffffffffffffffffffffff1673ffffffffffffffffffffffffffffffffffffffff16815260200190815260200160002060008481526020019081526020016000206000015490506000600360003373ffffffffffffffffffffffffffffffffffffffff1673ffffffffffffffffffffffffffffffffffffffff16815260200190815260200160002060008581526020019081526020016000206001018054612b319061453b565b80601f0160208091040260200160405190810160405280929190818152602001828054612b5d9061453b565b8015612baa5780601f10612b7f57610100808354040283529160200191612baa565b820191906000526020600020905b815481529060010190602001808311612b8d57829003601f168201915b505050505090506000600360003373ffffffffffffffffffffffffffffffffffffffff1673ffffffffffffffffffffffffffffffffffffffff16815260200190815260200160002060008681526020019081526020016000206002018054612c119061453b565b80601f0160208091040260200160405190810160405280929190818152602001828054612c3d9061453b565b8015612c8a5780601f10612c5f57610100808354040283529160200191612c8a565b820191906000526020600020905b815481529060010190602001808311612c6d57829003601f168201915b505050505090506000600360003373ffffffffffffffffffffffffffffffffffffffff1673ffffffffffffffffffffffffffffffffffffffff16815260200190815260200160002060008781526020019081526020016000206003018054612cf19061453b565b80601f0160208091040260200160405190810160405280929190818152602001828054612d1d9061453b565b8015612d6a5780601f10612d3f57610100808354040283529160200191612d6a565b820191906000526020600020905b815481529060010190602001808311612d4d57829003601f168201915b505050505090506000600584604051612d839190614892565b908152602001604051809103902083604051612d9f9190614892565b908152602001604051809103902082604051612dbb9190614892565b90815260200160405180910390206000868152602001908152602001600020600801600087815260200190815260200160002060000160009054906101000a900473ffffffffffffffffffffffffffffffffffffffff1690506000600585604051612e269190614892565b908152602001604051809103902084604051612e429190614892565b908152602001604051809103902083604051612e5e9190614892565b9081526020016040518091039020600087815260200190815260200160002060080160008881526020019081526020016000206001015490506000600586604051612ea99190614892565b908152602001604051809103902085604051612ec59190614892565b908152602001604051809103902084604051612ee19190614892565b9081526020016040518091039020600088815260200190815260200160002060090154905060005b81811015613184576000600588604051612f239190614892565b908152602001604051809103902087604051612f3f9190614892565b908152602001604051809103902086604051612f5b9190614892565b908152602001604051809103902060008a8152602001908152602001600020600801600083815260200190815260200160002060000160009054906101000a900473ffffffffffffffffffffffffffffffffffffffff1690506000600589604051612fc69190614892565b908152602001604051809103902088604051612fe29190614892565b908152602001604051809103902087604051612ffe9190614892565b908152602001604051809103902060008b81526020019081526020016000206008016000848152602001908152602001600020600101549050600460008373ffffffffffffffffffffffffffffffffffffffff1673ffffffffffffffffffffffffffffffffffffffff16815260200190815260200160002060008281526020019081526020016000206000808201600090556001820160006130a091906138fe565b6002820160006130b091906138fe565b6003820160006130c091906138fe565b50506005896040516130d29190614892565b9081526020016040518091039020886040516130ee9190614892565b90815260200160405180910390208760405161310a9190614892565b908152602001604051809103902060008b81526020019081526020016000206008016000848152602001908152602001600020600080820160006101000a81549073ffffffffffffffffffffffffffffffffffffffff0219169055600182016000905550505050808061317c906144c4565b915050612f09565b50826005876040516131969190614892565b9081526020016040518091039020866040516131b29190614892565b9081526020016040518091039020856040516131ce9190614892565b9081526020016040518091039020600089815260200190815260200160002060000160006101000a81548173ffffffffffffffffffffffffffffffffffffffff021916908373ffffffffffffffffffffffffffffffffffffffff16021790555060006005876040516132409190614892565b90815260200160405180910390208660405161325c9190614892565b9081526020016040518091039020856040516132789190614892565b9081526020016040518091039020600089815260200190815260200160002060070160006101000a81548160ff02191690831515021790555060006005876040516132c39190614892565b9081526020016040518091039020866040516132df9190614892565b9081526020016040518091039020856040516132fb9190614892565b9081526020016040518091039020600089815260200190815260200160002060090181905550600360003373ffffffffffffffffffffffffffffffffffffffff1673ffffffffffffffffffffffffffffffffffffffff16815260200190815260200160002060008a815260200190815260200160002060008082016000905560018201600061338a91906138fe565b60028201600061339a91906138fe565b6003820160006133aa91906138fe565b50506000600660008573ffffffffffffffffffffffffffffffffffffffff1673ffffffffffffffffffffffffffffffffffffffff1681526020019081526020016000206006015490506000600360008673ffffffffffffffffffffffffffffffffffffffff1673ffffffffffffffffffffffffffffffffffffffff16815260200190815260200160002060008381526020019081526020016000209050888160000181905550878160010190816134619190614718565b50868160020190816134739190614718565b50858160030190816134859190614718565b50816005896040516134979190614892565b9081526020016040518091039020886040516134b39190614892565b9081526020016040518091039020876040516134cf9190614892565b908152602001604051809103902060008b815260200190815260200160002060040181905550600660008673ffffffffffffffffffffffffffffffffffffffff1673ffffffffffffffffffffffffffffffffffffffff1681526020019081526020016000206006016000815480929190613548906144c4565b91905055505050505050505050505050565b60008060008060008060058a6040516135739190614892565b90815260200160405180910390208960405161358f9190614892565b9081526020016040518091039020886040516135ab9190614892565b9081526020016040518091039020600088815260200190815260200160002060000160009054906101000a900473ffffffffffffffffffffffffffffffffffffffff169050600060058b6040516136029190614892565b90815260200160405180910390208a60405161361e9190614892565b90815260200160405180910390208960405161363a9190614892565b90815260200160405180910390206000898152602001908152602001600020600201549050600060058c6040516136719190614892565b90815260200160405180910390208b60405161368d9190614892565b90815260200160405180910390208a6040516136a99190614892565b908152602001604051809103902060008a8152602001908152602001600020600401549050600060058d6040516136e09190614892565b90815260200160405180910390208c6040516136fc9190614892565b90815260200160405180910390208b6040516137189190614892565b908152602001604051809103902060008b8152602001908152602001600020600601549050600060058e60405161374f9190614892565b90815260200160405180910390208d60405161376b9190614892565b90815260200160405180910390208c6040516137879190614892565b908152602001604051809103902060008c8152602001908152602001600020600a015490508484848484995099509950995099505050505050945094509450945094565b6000806005866040516137de9190614892565b9081526020016040518091039020856040516137fa9190614892565b9081526020016040518091039020846040516138169190614892565b90815260200160405180910390206000848152602001908152602001600020905060008160090154905060008103613853576000925050506138f0565b60005b818110156138e8573373ffffffffffffffffffffffffffffffffffffffff1683600801600083815260200190815260200160002060000160009054906101000a900473ffffffffffffffffffffffffffffffffffffffff1673ffffffffffffffffffffffffffffffffffffffff16036138d557600193505050506138f0565b80806138e0906144c4565b915050613856565b506000925050505b949350505050565b60015481565b50805461390a9061453b565b6000825580601f1061391c575061393b565b601f01602090049060005260206000209081019061393a919061393e565b5b50565b5b8082111561395757600081600090555060010161393f565b5090565b6000604051905090565b600080fd5b600080fd5b600073ffffffffffffffffffffffffffffffffffffffff82169050919050565b600061399a8261396f565b9050919050565b6139aa8161398f565b81146139b557600080fd5b50565b6000813590506139c7816139a1565b92915050565b600080fd5b600080fd5b6000601f19601f8301169050919050565b7f4e487b7100000000000000000000000000000000000000000000000000000000600052604160045260246000fd5b613a20826139d7565b810181811067ffffffffffffffff82111715613a3f57613a3e6139e8565b5b80604052505050565b6000613a5261395b565b9050613a5e8282613a17565b919050565b600067ffffffffffffffff821115613a7e57613a7d6139e8565b5b613a87826139d7565b9050602081019050919050565b82818337600083830152505050565b6000613ab6613ab184613a63565b613a48565b905082815260208101848484011115613ad257613ad16139d2565b5b613add848285613a94565b509392505050565b600082601f830112613afa57613af96139cd565b5b8135613b0a848260208601613aa3565b91505092915050565b60008060008060808587031215613b2d57613b2c613965565b5b6000613b3b878288016139b8565b945050602085013567ffffffffffffffff811115613b5c57613b5b61396a565b5b613b6887828801613ae5565b935050604085013567ffffffffffffffff811115613b8957613b8861396a565b5b613b9587828801613ae5565b925050606085013567ffffffffffffffff811115613bb657613bb561396a565b5b613bc287828801613ae5565b91505092959194509250565b6000819050919050565b613be181613bce565b8114613bec57600080fd5b50565b600081359050613bfe81613bd8565b92915050565b60008060408385031215613c1b57613c1a613965565b5b6000613c29858286016139b8565b9250506020613c3a85828601613bef565b9150509250929050565b613c4d81613bce565b82525050565b600081519050919050565b600082825260208201905092915050565b60005b83811015613c8d578082015181840152602081019050613c72565b60008484015250505050565b6000613ca482613c53565b613cae8185613c5e565b9350613cbe818560208601613c6f565b613cc7816139d7565b840191505092915050565b6000608082019050613ce76000830187613c44565b8181036020830152613cf98186613c99565b90508181036040830152613d0d8185613c99565b90508181036060830152613d218184613c99565b905095945050505050565b60008060008060808587031215613d4657613d45613965565b5b600085013567ffffffffffffffff811115613d6457613d6361396a565b5b613d7087828801613ae5565b945050602085013567ffffffffffffffff811115613d9157613d9061396a565b5b613d9d87828801613ae5565b935050604085013567ffffffffffffffff811115613dbe57613dbd61396a565b5b613dca87828801613ae5565b9250506060613ddb87828801613bef565b91505092959194509250565b613df08161398f565b82525050565b60008115159050919050565b613e0b81613df6565b82525050565b600061014082019050613e27600083018d613de7565b613e34602083018c613de7565b613e41604083018b613c44565b613e4e606083018a613c44565b613e5b6080830189613c44565b613e6860a0830188613e02565b613e7560c0830187613c44565b613e8260e0830186613e02565b613e90610100830185613c44565b613e9e610120830184613c44565b9b9a5050505050505050505050565b600060208284031215613ec357613ec2613965565b5b6000613ed1848285016139b8565b91505092915050565b600061010082019050613ef0600083018b613de7565b8181036020830152613f02818a613c99565b90508181036040830152613f168189613c99565b90508181036060830152613f2a8188613c99565b9050613f396080830187613c44565b81810360a0830152613f4b8186613c99565b9050613f5a60c0830185613c44565b613f6760e0830184613c44565b9998505050505050505050565b6000602082019050613f896000830184613de7565b92915050565b600080600080600080600080610100898b031215613fb057613faf613965565b5b600089013567ffffffffffffffff811115613fce57613fcd61396a565b5b613fda8b828c01613ae5565b985050602089013567ffffffffffffffff811115613ffb57613ffa61396a565b5b6140078b828c01613ae5565b975050604089013567ffffffffffffffff8111156140285761402761396a565b5b6140348b828c01613ae5565b96505060606140458b828c01613bef565b95505060806140568b828c01613bef565b94505060a06140678b828c016139b8565b93505060c06140788b828c01613bef565b92505060e06140898b828c01613bef565b9150509295985092959890939650565b6000602082840312156140af576140ae613965565b5b60006140bd84828501613bef565b91505092915050565b600060808201905081810360008301526140e08187613c99565b905081810360208301526140f48186613c99565b905081810360408301526141088185613c99565b90506141176060830184613c44565b95945050505050565b600080600080600060a0868803121561413c5761413b613965565b5b600086013567ffffffffffffffff81111561415a5761415961396a565b5b61416688828901613ae5565b955050602086013567ffffffffffffffff8111156141875761418661396a565b5b61419388828901613ae5565b945050604086013567ffffffffffffffff8111156141b4576141b361396a565b5b6141c088828901613ae5565b93505060606141d188828901613bef565b92505060806141e288828901613bef565b9150509295509295909350565b60006080820190506142046000830187613de7565b81810360208301526142168186613c99565b9050818103604083015261422a8185613c99565b9050818103606083015261423e8184613c99565b905095945050505050565b600060408201905061425e6000830185613c44565b61426b6020830184613c44565b9392505050565b600060a082019050818103600083015261428c8188613c99565b905081810360208301526142a08187613c99565b905081810360408301526142b48186613c99565b90506142c36060830185613c44565b81810360808301526142d58184613c99565b90509695505050505050565b60006020820190506142f66000830184613e02565b92915050565b600080600080600060a0868803121561431857614317613965565b5b600086013567ffffffffffffffff8111156143365761433561396a565b5b61434288828901613ae5565b955050602086013567ffffffffffffffff8111156143635761436261396a565b5b61436f88828901613ae5565b945050604086013567ffffffffffffffff8111156143905761438f61396a565b5b61439c88828901613ae5565b93505060606143ad88828901613bef565b925050608086013567ffffffffffffffff8111156143ce576143cd61396a565b5b6143da88828901613ae5565b9150509295509295909350565b600080604083850312156143fe576143fd613965565b5b600061440c85828601613bef565b925050602061441d85828601613bef565b9150509250929050565b600060a08201905061443c6000830188613de7565b6144496020830187613c44565b6144566040830186613c44565b6144636060830185613c44565b6144706080830184613c44565b9695505050505050565b600060208201905061448f6000830184613c44565b92915050565b7f4e487b7100000000000000000000000000000000000000000000000000000000600052601160045260246000fd5b60006144cf82613bce565b91507fffffffffffffffffffffffffffffffffffffffffffffffffffffffffffffffff820361450157614500614495565b5b600182019050919050565b7f4e487b7100000000000000000000000000000000000000000000000000000000600052602260045260246000fd5b6000600282049050600182168061455357607f821691505b6020821081036145665761456561450c565b5b50919050565b60008190508160005260206000209050919050565b60006020601f8301049050919050565b600082821b905092915050565b6000600883026145ce7fffffffffffffffffffffffffffffffffffffffffffffffffffffffffffffffff82614591565b6145d88683614591565b95508019841693508086168417925050509392505050565b6000819050919050565b600061461561461061460b84613bce565b6145f0565b613bce565b9050919050565b6000819050919050565b61462f836145fa565b61464361463b8261461c565b84845461459e565b825550505050565b600090565b61465861464b565b614663818484614626565b505050565b5b818110156146875761467c600082614650565b600181019050614669565b5050565b601f8211156146cc5761469d8161456c565b6146a684614581565b810160208510156146b5578190505b6146c96146c185614581565b830182614668565b50505b505050565b600082821c905092915050565b60006146ef600019846008026146d1565b1980831691505092915050565b600061470883836146de565b9150826002028217905092915050565b61472182613c53565b67ffffffffffffffff81111561473a576147396139e8565b5b614744825461453b565b61474f82828561468b565b600060209050601f8311600181146147825760008415614770578287015190505b61477a85826146fc565b8655506147e2565b601f1984166147908661456c565b60005b828110156147b857848901518255600182019150602085019450602081019050614793565b868310156147d557848901516147d1601f8916826146de565b8355505b6001600288020188555050505b505050505050565b7f4f6e6c792061646d696e2063616e205265676973746572206c616e6400000000600082015250565b6000614820601c83613c5e565b915061482b826147ea565b602082019050919050565b6000602082019050818103600083015261484f81614813565b9050919050565b600081905092915050565b600061486c82613c53565b6148768185614856565b9350614886818560208601613c6f565b80840191505092915050565b600061489e8284614861565b915081905092915050565b600081546148b68161453b565b6148c08186614856565b945060018216600081146148db57600181146148f057614923565b60ff1983168652811515820286019350614923565b6148f98561456c565b60005b8381101561491b578154818901526001820191506020810190506148fc565b838801955050505b50505092915050565b600061493882846148a9565b915081905092915050565b7f41646d696e2063616e206f6e6c79207265676973746572206c616e64206f662060008201527f73616d6520636974792e00000000000000000000000000000000000000000000602082015250565b600061499f602a83613c5e565b91506149aa82614943565b604082019050919050565b600060208201905081810360008301526149ce81614992565b9050919050565b7f537572766579204e756d62657220616c7265616479207265676973746572656460008201527f2100000000000000000000000000000000000000000000000000000000000000602082015250565b6000614a31602183613c5e565b9150614a3c826149d5565b604082019050919050565b60006020820190508181036000830152614a6081614a24565b9050919050565b7f50726f706572747920616c7265616479206d61726b656420617661696c61626c60008201527f6500000000000000000000000000000000000000000000000000000000000000602082015250565b6000614ac3602183613c5e565b9150614ace82614a67565b604082019050919050565b60006020820190508181036000830152614af281614ab6565b9050919050565b7f546869732070726f7065727479206973204e4f54206d61726b656420666f722060008201527f73616c6521000000000000000000000000000000000000000000000000000000602082015250565b6000614b55602583613c5e565b9150614b6082614af9565b604082019050919050565b60006020820190508181036000830152614b8481614b48565b905091905056fea2646970667358221220d91b03045ff9104f112b47591241db1e60cd2f31422f2b6de4d75cd332702e7a64736f6c63430008110033",
  "linkReferences": {},
  "deployedLinkReferences": {}
}